:060000000A128A11122809
:10000800FE00030EF2000408F3000A08F40083124D
:1000180003137F08F5000A168A1100280A168A11A8
:10002800222B83160317CE010314CE0D00300A16B7
:100038008A116D200A128A11013A031D24282528E5
:100048002E2A0A168A1132200A128A117A3083124D
:100058000313AB008530AC00AD01AE010A168A115E
:1000680023270A128A1183160317CE01D53083126B
:100078000313E9000130EA000A168A11EC240A1277
:100088008A1183160313D700570883160317D40061
:100098005408FF3A031D5128522855282E2A2E2A83
:1000A8002E2A5408013A031D5A285B280D2AD50820
:1000B800031D5F2860280D2A0A168A1132200A12A9
:1000C8008A11BD3083120313AB008630AC00AD013A
:1000D800AE010A168A1123270A128A1102308312E6
:1000E8000313AD000030AE000A168A113F250A122C
:1000F8008A1183160317D7010314D70D0A168A111C
:1001080032200A128A11C93083120313AB008630D9
:10011800AC00AD01AE010A168A1123270A128A1112
:1001280083160317570883160313D700D801D9017C
:10013800DA015A0883120313B70083160313590808
:1001480083120313B600831603135808831203138C
:10015800B50083160313570883120313B400CF3076
:10016800B8000130B900023083160313DB005B08C6
:1001780083120313BA000A128A158F200A128A11F1
:10018800CF3083120313AB000130AC00AD01031470
:10019800AD0D053083160313D700570883120313D8
:1001A800AE000A168A1123270A128A11DB280A12BE
:1001B8008A1510210A128A110A168A1598270A1216
:1001C8008A11003A0319E928EA28DB280A168A1155
:1001D80019200A128A1183160313D70057088316A9
:1001E8000317D6005608313A031DFB28FC280C29B2
:1001F800183057020318012902292E2901308316C5
:100208000313D700570883160317D7072E292E295B
:100218005608323A031D112912291A295708031DB5
:1002280016292E290130D7022E292E295608333AAD
:10023800031D1F29202923292E2A2E2A2E29560854
:10024800343A031D282929292E29752975292E298B
:100258002E292E29570883160313D700D801D90150
:10026800DA015A0883120313B700831603135908D7
:1002780083120313B600831603135808831203135B
:10028800B50083160313570883120313B400CF3045
:10029800B8000130B900023083160313DB005B0895
:1002A80083120313BA000A128A158F200A128A11C0
:1002B800CF3083120313AB000130AC00AD0103143F
:1002C800AD0D053083160313D700570883120313A7
:1002D800AE000A168A1123270A128A11DB28DB28A6
:1002E800DB288316031757080A168A11F6250A12FF
:1002F8008A11013A031D81298229EE290A168A11D9
:1003080032200A128A11DF3083120313AB008530C2
:10031800AC00AD01AE010A168A1123270A128A1110
:1003280083160317570883160313D700D801D9017A
:10033800DA015A0883120313B70083160313590806
:1003480083120313B600831603135808831203138A
:10035800B50083160313570883120313B400C4307F
:10036800B8000130B900023083160313DB005B08C4
:1003780083120313BA000A128A158F200A128A11EF
:10038800C43083120313AB000130AC00AD01031479
:10039800AD0D093083160313D700570883120313D2
:1003A800AE000A168A1123270A128A118316031728
:1003B80057080A168A113E210A128A11023083123E
:1003C8000313AD000030AE000A168A113F250A1249
:1003D8008A112E2A0A168A1132200A128A11A2308C
:1003E80083120313AB008630AC00AD01AE010A16D0
:1003F8008A1123270A128A11023083120313AD00CF
:100408000030AE000A168A113F250A128A112E2AD8
:100418002E2A0A168A1132200A128A118230831271
:100428000313AB008630AC00AD01AE010A168A1189
:1004380023270A128A11023083120313AD000030F9
:10044800AE000A168A113F250A128A112E2A2E2A70
:100458002E2A2E2A080083120313C0000030C5007C
:100468000F30C400FF30C300FF30C200CB01CC0105
:10047800C801C101CA014D30B8003808C900C60119
:10048800C7014908A0000030A100A2010C30A30058
:100498000030A4000A168A11D0200A128A11CB2B28
:1004A8000A168A159F270A128A11003A03195D2A2B
:1004B8005E2ACB2B0A128A1502200A128A1183128D
:1004C8000313B8003808CC000030C5000F30C40052
:1004D800FF30C300FF30C200CA08031D742A752A02
:1004E800842A4C08B8004B084907B9003908840029
:1004F8003808831380000130B8003808CB07D32AA6
:100508004A08013A031D892A8A2AB72A5408FD3E57
:10051800B80055080318013EFF3EB9004808BA0064
:10052800BB0139083B02031D9B2A38083A0203180D
:100538009E2A9F2AB72A4C08B80048084007B900E5
:10054800390884003808831380000130B80038085F
:10055800C8074C08B800B9013808C6070318C70A05
:100568003908C707D32A4C08B8004B084907B9000F
:10057800390884003808831380000130B80038082F
:10058800CB070130B8003808C1074108023A031DFB
:10059800CE2ACF2AD32AFC2BFC2BD32AD32ACA084B
:1005A800031DD72AD82ACB2B4B080A3A031DDD2A6C
:1005B800DE2ACB2B4D08A0004E08A100A201A30102
:1005C8000230B8003808A4000A128A1527220A1235
:1005D8008A11831203132108CE01CE072008CD010A
:1005E800CD0702304D3E840083130008A000840A22
:1005F8000008A100840A0008A200840A0008A300D9
:100608000430B8003808A4000A128A1527220A12F2
:100618008A11831203132308D2002208D10021086B
:10062800D0002008CF005308B800B901BA01BB01B7
:100638003B08A3003A08A2003908A1003808A00026
:10064800A4010314A40D0A128A1527220A128A117A
:10065800831203132008BC003C08D3005408A000F0
:100668005508A100A201A3010230B8003808A4006F
:100678000A128A1527220A128A11831203132108E3
:10068800D501D5072008D401D4075608B800B90108
:10069800BA01BB013B08A3003A08A2003908A1002F
:1006A8003808A000A4010314A40D0A128A152722F1
:1006B8000A128A11831203132008BC003C08D600D2
:1006C800CA010314CA0DEF304E06031D6D2B01300D
:1006D8004D06031D702B712B9A2B831603133008BC
:1006E800831203135206031D8F2B831603132F083F
:1006F800831203135106031D8F2B831603132E0831
:10070800831203135006031D8F2B831603132D0822
:10071800831203134F06031D922B932B9A2B530816
:10072800073A0319982B992B9D2B9A2B0030292CCB
:10073800292C07304D3E840083130008B800840A32
:100748000008B90008300310B90CB80CFF3E031DAF
:10075800A72B53083807BA00BB01BB0D54083A074A
:10076800BC000030031801303B07BD0056083C07A9
:10077800BE000030031801303D07BF003E08C60721
:100788000318C70A3F08C707CB2BCB2BCB2B01304D
:1007980083120313B8000030B9000030BA000030EB
:1007A800BB003808C2023908031C390FDC2BDD2BCB
:1007B800C3023A08031C3A0FE22BE32BC4023B089E
:1007C800031C3B0FE82BE92BC502FF304506031D30
:1007D800F72BFF304406031DF72BFF304306031D9C
:1007E800F72BFF304206031DFA2BFB2B542AFC2B58
:1007F8005708A0005808A100A201A3010230B800C0
:100808003808A4000A128A1527220A128A118312AC
:1008180003132108D801D8072008D701D7074708AC
:100828005806031D192C46085706031D1C2C1D2CA1
:10083800272C5608B800370884003808831380002E
:100848000130292C292C0030292C08008316031389
:10085800D7010314D70D00300A168A116D200A1229
:100868008A11013A031D392C3A2CB92C0A168A111F
:1008780032200A128A117A3083120313AB008530B2
:10088800AC00AD01AE010A168A1123270A128A119B
:1008980083160313D701D93083120313E9000030FC
:1008A800EA000A168A11EC240A128A118312031329
:1008B800ED006D0883160313D8005808FF3A031D8E
:1008C800662C672C6A2CF42CF42CB92C5808013AA5
:1008D800031D6F2C702C982CD908031D742C752CB3
:1008E800982C0A168A1132200A128A11BD308312F6
:1008F8000313AB008630AC00AD01AE010A168A11B5
:1009080023270A128A11023083120313AD00003024
:10091800AE000A168A113F250A128A11831603139C
:10092800D7010314D70DB92C0A168A1132200A12DE
:100938008A11823083120313AB008630AC00AD01FC
:10094800AE010A168A1123270A128A11023083126D
:100958000313AD000030AE000A168A113F250A12B3
:100968008A11F42CF42CB92CB92C831603135708CC
:10097800013A031DC02CC12CF42C0A168A116822D6
:100988000A128A1118300A168A114E200A128A1180
:1009980083120313A3011E300A128A11D8270A12E0
:1009A8008A110A168A1132200A128A115C308312BF
:1009B8000313AB008630AC00AD01AE010A168A11F4
:1009C80023270A128A11023083120313AD00003064
:1009D800AE000A168A113F250A128A11F42CF42C4B
:1009E800080064008001840A040603190034040620
:0609F800F62CFF34FF3471
:100A00003134203441346434643420344E34653419
:100A10007734203455347334653472340A343234C4
:100A20002034443465346C34653474346534203493
:100A30004F346C3464342034553473346534723438
:100A40000034313420344334683461346E346734D4
:100A500065342034413464346D3469346E340A347E
:100A6000323420344134643464342F3444346534B3
:100A70006C3420345534733465347234003431347A
:100A8000203446346F347234203441346334633458
:100A90006534733473340A343234203446346F345A
:100AA0007234203441346C347434653472342034FC
:100AB0005534733465347234003431342034443462
:100AC00065346C34653474346534203441346C34AA
:100AD0006C340A3432342034443465346C34653434
:100AE000743465342034533469346E3467346C3470
:100AF00065340034413464346D3469346E342034E8
:100B00005234653471347534693472346534643404
:100B10000A3450346C3461346334653420344634E0
:100B200069346E3467346534723400344534723459
:100B300072346F347234203449346E340A342034C1
:100B40002034523465346734693473347434653412
:100B500072346134743469346F346E340034503418
:100B60006C347A34203452346534673469347334E5
:100B70007434653472340A3420346E346534773416
:100B80002034413464346D3469346E340034453477
:100B9000723472346F347234203449346E340A340F
:100BA0002034553473346534723420344334723411
:100BB00065346134743469346F346E3400345534C0
:100BC0007334653472342034443465346C346534A1
:100BD0007434653464340A3455347334653472348F
:100BE00020344E346F343A3400344E346534773424
:100BF000203455347334653472340A3450346C34D0
:100C00006134633465342034463469346E34673477
:100C10006534723400344E346534773420345534BE
:100C20007334653472340A34203443347234653496
:100C30006134743465346434203440343A340034DC
:100C400055347334653472342034563461346C3422
:100C5000693464340A34553473346534723420345E
:100C60004E346F343A340034413464346D34693472
:100C70006E3420340A3420342034523465346734DE
:100C800069347334743465347234653464340034D4
:100C9000433461346E34273474342034443465343E
:100CA0006C346534743465340A342034413464342B
:100CB0006D3469346E34003441346C346C34203417
:100CC000553473346534723473340A342034443404
:100CD00065346C34653474346534643400344E34B3
:100CE0006F347434203445346E346F347534673463
:100CF00068340A3420344D3465346D346F347234C2
:100D000079340034413464346D3469346E342034C1
:100D10004E346F3474340A342034203466346F34E3
:100D200075346E3464340034413464346D34693461
:100D30006E342034443465346C3465347434653432
:100D400064340034433461346E346E346F3474343C
:100D50002034443465346C34653474346534003480
:100D600049346E34763461346C34693464342034FC
:100D700055347334653472340034413464346D3422
:100D800069346E34203466346F3475346E346434B0
:100D90000034533465346C34653463347434203433
:100DA00055347334653472340034573465346C34DC
:100DB00063346F346D3465340034FF3083120313B1
:100DC000EE006E08EF008F308316031387000A16BB
:100DD0008A1165210A128A11831203138610D530F5
:100DE000AB008630AC00AD01AE010A168A11232794
:100DF0000A128A11013083120313AD000030AE00D5
:100E00000A168A113F250A128A110A168A15B32773
:100E10000A128A110A168A11C8210A128A11102F81
:100E20003F3083120313B3008530B4000A168A11D1
:100E30009C240A128A1183120313EE006E08EF003D
:100E40006F08313A031D252F262F2C2F0A128A15E1
:100E5000D6220A128A11102F831203136F08323A16
:100E6000031D332F342F102F352F213083120313FE
:100E7000B3008530B4000A168A119C240A128A1124
:100E800083120313EE006E08EF006F08313A031D62
:100E90004A2F4B2F512F0A128A150D250A128A113B
:100EA000352F831203136F08323A031D582F592F21
:100EB000C52F5A2F003083120313B3008530B400BE
:100EC0000A168A119C240A128A1183120313EE0057
:100ED0006E08EF006F08313A031D6F2F702F762FC9
:100EE0000A128A1584260A128A115A2F83120313B2
:100EF0006F08323A031D7D2F7E2FB82F7F2F5D3074
:100F000083120313B3008530B4000A168A119C249F
:100F10000A128A1183120313EE006E08EF006F08A5
:100F2000313A031D942F952F9B2F0A128A112A24E0
:100F30000A128A117F2F831203136F08323A031D9E
:100F4000A22FA32FA92F0A128A1115200A128A1183
:100F50007F2F831203136F08333A031DB02FB12F75
:100F60007F2F5A2F5A2F7F2F7F2F7F2F7F2F5A2F80
:100F70006F08333A031DBD2FBE2F5A2F352F352F43
:100F80005A2F5A2F5A2F5A2F352F6F08333A031DD5
:100F9000CA2FCB2F352F102F102F352F352F352F50
:100FA000352F102F102F102F102F0A128A111228F0
:100FB00083120313A400831603178C1383120313E5
:100FC0002408831203178D0083120313230883124E
:100FD00003178C00831603178C110C1555308D00E8
:100FE000AA308D008C14F52F0C118C18F82FF92FC6
:100FF000F42F8C1DFC2FFD2FFF2FDB2FDB2F080084
:101004007908103E84008317000883120313A0009C
:101014002008A1000130A0002008F9077908603AEF
:10102400031D152816281828F901182821081A283C
:1010340008006330840083160313200883138000A0
:10104400840A21088000840A22088000840A230874
:101054008000840A24088000FF3083120313DB001D
:101064005B08E8005E30840083160317580880008C
:10107400840A59088000840A5A088000840A5B089C
:101084008000840A5C0880000A168A118E200A12E5
:101094008A15083083120313DB005B08AB001B3096
:1010A400DC005C08AC005E30DD005D08AD000130A2
:1010B4000A128A15B4230A128A156830831203139C
:1010C400DB005B08B70063300A128A112F220A1270
:1010D4008A15003A03196F28702884288312031391
:1010E400E808031D7628772884286408DB0059085B
:1010F400840083175A1C83135B08800001308E28F8
:101104008E288428831203135908840083175A1CD9
:101114008313800100308E280800831203133708DC
:10112400B1003608B0003508AF003408AE000A1626
:101134008A1194210A128A1583120313BB003B08F7
:10114400BE003A083E020318A828A928AE283A0887
:10115400BB003B08BE00AE283E083807BB00390878
:101164000318013EBC003B08840083173C1C831316
:1011740080010130BE0208290030A3000030A20023
:101184000030A1000A30A0003708A7003608A600E6
:101194003508A5003408A4000A168A1198250A12F5
:1011A4008A15831203132008303EBB003E0838071B
:1011B400BC0039080318013EBD003C0884008317B5
:1011C4003D1C83133B0880000130BE020030A300A5
:1011D4000030A2000030A1000A30A0003708A700A8
:1011E4003608A6003508A5003408A4000A168A119A
:1011F40090270A128A15831203132308B7002208C2
:10120400B6002108B5002008B40008293E08FF3ABA
:10121400031D0D290E29BE280F290800831203136C
:10122400A501071C162917292F2987181A291B29F4
:101234002F2907191E291F292F2987192229232914
:101244002F292529252907182829292925292A2943
:101254003330A4002408A50085290718322933292E
:101264004B29871C362937294B2907193A293B2949
:101274004B2987193E293F294B29412941298718A0
:1012840044294529412946293430A4002408A500CD
:10129400852907184E294F29672987185229532968
:1012A4006729071D56295729672987195A295B2950
:1012B40067295D295D290719602961295D2962294A
:1012C4003230A4002408A500852907186A296B294F
:1012D400852987186E296F29852907197229732989
:1012E4008529871D762977298529792979298719D7
:1012F4007C297D2979297E293130A4002408A50080
:101304008529852985292508031D892990292508EA
:101314000A168A11F4200A128A15902908008312E9
:101324000313E400FF30E3006308E50099290A127F
:101334008A1510210A128A150A168A1598270A1284
:101344008A15003A0319A729A829B6290A168A1169
:1013540019200A128A15333A031DB129B229B62974
:10136400FF30262A262AB6290A168A116B230A1266
:101374008A1583120313E3006308E5006508013A44
:10138400031DC529C62999290A168A1102240A129D
:101394008A150A128A1510210A128A150A168A1544
:1013A40098270A128A15003A0319D929DA29E82953
:1013B4000A168A1119200A128A15333A031DE329E1
:1013C400E429E829FF30262A262AE8290A168A1160
:1013D4006B230A128A1583120313E3006308E500E2
:1013E4006508013A031DF729F829CB290A168A1141
:1013F400A6220A128A150A168A11E4220A128A15EA
:101404008312031364080A168A1155260A128A15D0
:10141400013A031D0E2A0F2A1B2A831203136408A0
:101424000A168A1118210A128A150130262A262A38
:10143400CB290030262A262ACB29CB29CB29992946
:10144400992999290030262A0800831203132408B5
:10145400013A031D2E2A2F2A312AD52AD52A2408F7
:10146400023A031D362A372A5A2A2108B601B6073A
:101474002008B501B5073608A6003508A5000830D0
:101484000310A60CA50CFF3E031D422A3508A80034
:10149400A70125082704B50026082804B600350846
:1014A400A0003608A100A201A301D52AD52AD52A75
:1014B4002408043A031D5F2A602AD52A2008A500BF
:1014C4002108A6002208A7002308A800183003104A
:1014D400A80CA70CA60CA50CFF3E031D692A200826
:1014E400A9002108AA002208AB002308AC00103090
:1014F4000310AC0CAB0CAA0CA90CFF3E031D7A2AFA
:1015040008300310A90DAA0DAB0DAC0DFF3E031D51
:10151400832A2008AD002108AE002208AF0023086A
:10152400B00008300310B00CAF0CAE0CAD0CFF3E95
:10153400031D942A10300310AD0DAE0DAF0DB00D88
:10154400FF3E031D9D2A2008B1002108B200220895
:10155400B3002308B40018300310B10DB20DB30D5D
:10156400B40DFF3E031DAE2A3108AD043208AE04AB
:101574003308AF043408B0042D08A9042E08AA04C3
:101584002F08AB043008AC0425082904A000260861
:101594002A04A10027082B04A20028082C04A30075
:1015A400D52AD52AD52A080083160313E701E601B4
:1015B400831203138612DE2A0A168A1132200A12B3
:1015C4008A15893083120313AB008530AC00AD015A
:1015D400AE010A168A1123270A128A15E7308312EC
:1015E4000313E9000030EA000A168A11EC240A12F7
:1015F4008A1583160313D7005708E6006608FF3AD6
:10160400031D052B062B092BB32BB32BDE2A6608EF
:10161400013A031D0E2B0F2B862BDC308312031390
:10162400A0000030A100A2010A30A3000030A400F1
:101634000A168A11D0200A128A150A168A11322033
:101644000A128A15203083120313AB008630AC00D3
:10165400AD01AE010A168A1123270A128A158316D0
:1016640003136708D700D801D901DA015A08831295
:101674000313B70083160313590883120313B60028
:1016840083160313580883120313B5008316031338
:10169400570883120313B400DC30B8000030B900DB
:1016A400023083160313DB005B0883120313BA00B2
:1016B4000A128A158F200A128A15DC30831203134A
:1016C400AB000030AC00AD010314AD0D093083163E
:1016D4000313D700570883120313AE000A168A11A6
:1016E40023270A128A158312031386140330AD00CC
:1016F4000030AE000A168A113F250A128A15831299
:1017040003138610B32BDE2A83160313E608031D86
:101714008C2B8D2BDE2A0A168A1132200A128A1586
:10172400B03083120313AB008630AC00AD01AE01C0
:101734000A168A1123270A128A158312031386169E
:101744000230AD000030AE000A168A113F250A129D
:101754008A15831203138612B32BDE2ADE2ADE2AAD
:10176400DE2A080083120313B600B701B8018316FA
:101774000313CC01CD013508C201C2073408C101ED
:10178400C107410883120313A100831603134208FF
:1017940083120313A200A301A4010230AE002E0899
:1017A400A5000A168A114E240A128A1583160313F9
:1017B4003008C6002F08C5002E08C4002D08C30039
:1017C4000230C13E84008313000883120313A10076
:1017D400840A0008A200840A0008A300840A0008FE
:1017E400A4000430AE002E08A5000A168A114E2467
:1017F4000A128A15831203133608AE002E088316C4
:101804000313C700470883120313AE00AF01B001EE
:10181400B1013108A4003008A3002F08A2002E084B
:10182400A100A5010314A50D0A168A114E240A125B
:101834008A15831203132B08AE00AF012E088316FA
:101844000313C800831203132F0883160313C9005C
:10185400480883120313A100831603134908831253
:101864000313A200A301A4010230AE002E08A500B8
:101874000A168A114E240A128A15831203132C089D
:10188400AE002E0883160313CA004A0883120313FA
:10189400AE00AF01B001B1013108A4003008A300CB
:1018A4002F08A2002E08A100A5010314A50D0A16F5
:1018B4008A114E240A128A15831203132D08AE00CE
:1018C4002E0883160313CB0083120313B701B80148
:1018D4009F2C3708831603134B0783120313AE00A0
:1018E4002E088400831300080A168A15A6270A12F4
:1018F4008A15831203133708831603134B078312C5
:101904000313AE002E08840083130008AF00B00157
:101914002F0883160313CC070318CD0A831203136D
:10192400300883160313CD07013083120313B7075E
:101934000318B80A0030B8079F2C8316031348080D
:10194400FD3E83120313AE008316031349080318E4
:10195400013EFF3E83120313AF002F083802031D1C
:10196400B52C2E083702031CB82CB92C6B2CBA2CBE
:101974000730C13E840083130008AE00840A0008C7
:10198400AF0008300310AF0CAE0CFF3E031DC42C97
:10199400831603134708831203132E07B000B10103
:1019A400B10D831603134808831203133007B200E2
:1019B4000030031801303107B300831603134A08BB
:1019C400831203133207B4000030031801303307C5
:1019D400B500340883160313CC070318CD0A831209
:1019E4000313350883160313CD074C08831203131E
:1019F400A100831603134D0883120313A200A3014D
:101A0400A4010230AE002E08A5000A168A114E2445
:101A14000A128A15080083160313D7010314D70D7D
:101A240000300A168A116D200A128A15013A031D24
:101A34001C2D1D2DE42D0A168A1132200A128A1536
:101A44007A3083120313AB008530AC00AD01AE01D4
:101A54000A168A1123270A128A1583160313D7013B
:101A6400DA3083120313E9000030EA000A168A11FF
:101A7400EC240A128A1583120313ED006D088316F1
:101A84000313D8005808FF3A031D492D4A2D4D2D44
:101A9400832E832EE42D5808013A031D522D532D15
:101AA400C32DDA08031D572D582DC32D0A168A118C
:101AB40032200A128A15BD3083120313AB0086301C
:101AC400AC00AD01AE010A168A1123270A128A1549
:101AD400023083120313AD000030AE000A168A11DF
:101AE4003F250A128A1500300A168A11F6250A12B1
:101AF4008A15013A031D7F2D802DA32D0A168A1104
:101B040032200A128A15943083120313AB008630F4
:101B1400AC00AD01AE010A168A1123270A128A15F8
:101B2400013083120313AD000030AE000A168A118F
:101B34003F250A128A1583160313D7010314D70D00
:101B4400E42D0A168A1132200A128A1548308312AB
:101B54000313AB008630AC00AD01AE010A168A1146
:101B640023270A128A15023083120313AD000030B2
:101B7400AE000A168A113F250A128A15832E832E77
:101B8400E42D0A168A1132200A128A158230831231
:101B94000313AB008630AC00AD01AE010A168A1106
:101BA40023270A128A15023083120313AD00003072
:101BB400AE000A168A113F250A128A15832E832E37
:101BC400E42DE42D831603135708013A031DEB2D6E
:101BD400EC2D832E0A168A1132200A128A15AF3090
:101BE40083120313AB008530AC00AD01AE010A16BD
:101BF4008A1123270A128A15023083120313AD00B7
:101C04000030AE000A168A113F250A128A150A16F8
:101C14008A1132200A128A15893083120313AB0009
:101C24008530AC00AD01AE010A168A1123270A12D1
:101C34008A15023083120313AD000030AE000A1679
:101C44008A113F250A128A1500300A128A15912139
:101C54000A128A1583120313ED006D088316031309
:101C6400D9005908013A031D382E392E572E0A1669
:101C74008A1132200A128A15343083120313AB00FE
:101C84008630AC00AD01AE010A168A1123270A1270
:101C94008A15023083120313AD000030AE000A1619
:101CA4008A113F250A128A15832E831603135908B5
:101CB400FF3A031D5E2E5F2E622E832E832E832E0B
:101CC4000A168A1132200A128A15963083120313D7
:101CD400AB008530AC00AD01AE010A168A11232792
:101CE4000A128A15023083120313AD000030AE00CD
:101CF4000A168A113F250A128A15832E832E832EF3
:101D0400832E080083160313E6010314E60D003046
:101D14000A168A116D200A128A15013A031D932EA0
:101D2400942E112F0A168A1132200A128A157A303B
:101D340083120313AB008530AC00AD01AE010A166B
:101D44008A1123270A128A1583160313E601EB303E
:101D540083120313E9000030EA000A168A11EC2406
:101D64000A128A1583160313D7005708E700670879
:101D7400FF3A031DBE2EBF2EC22EFF2FFF2F112FA1
:101D84006708013A031DC72EC82EF02EEB08031D69
:101D9400CC2ECD2EF02E0A168A1132200A128A1564
:101DA400BD3083120313AB008630AC00AD01AE012D
:101DB4000A168A1123270A128A1502308312031382
:101DC400AD000030AE000A168A113F250A128A15AA
:101DD40083160313E6010314E60D112F0A168A1164
:101DE40032200A128A15823083120313AB00863024
:101DF400AC00AD01AE010A168A1123270A128A1516
:101E0400023083120313AD000030AE000A168A11AB
:101E14003F250A128A15FF2FFF2F112F112F83162A
:101E240003136608013A031D182F192FFF2F0A16F2
:101E34008A1131220A128A1583160313D700570810
:101E4400E8006808FF3A031D282F292F472F0A1698
:101E54008A1132200A128A156F3083120313AB00E1
:101E64008630AC00AD01AE010A168A1123270A128E
:101E74008A15023083120313AD000030AE000A1637
:101E84008A113F250A128A15FF2F0A168A11322059
:101E94000A128A15F53083120313AB008530AC00A7
:101EA400AD01AE010A168A1123270A128A15831678
:101EB40003136808D7005708E90069080A128A154D
:101EC40091210A128A1583160313D7005708EA00D2
:101ED4006A08013A031D6F2F702FD22F0A168A1138
:101EE40032200A128A150B3083120313AB0086309A
:101EF400AC00AD01AE010A168A1123270A128A1515
:101F0400831603136908D700D801D901DA015A08E6
:101F140083120313B70083160313590883120313A0
:101F2400B60083160313580883120313B5008316EF
:101F34000313570883120313B400DC30B8000030D5
:101F4400B900023083160313DB005B08831203130A
:101F5400BA000A128A158F200A128A15DC308312FD
:101F64000313AB000030AC00AD010314AD0D0C3015
:101F740083160313D700570883120313AE000A16FF
:101F84008A1123270A128A15023083120313AD0023
:101F94000030AE000A168A113F250A128A15FF2F57
:101FA400831603136A08FF3A031DD92FDA2FDD2F96
:101FB400FF2FFF2FFF2F0A168A1132200A128A15CB
:101FC400C73083120313AB008530AC00AD01AE0102
:101FD4000A168A1123270A128A1502308312031360
:101FE400AD000030AE000A168A113F250A128A1588
:101FF400FF2FFF2FFF2FFF2FFF2F08008C1E03281A
:1020040004280E281A080A168A15EA270A168A11BD
:10201400831203138C120E287508FF0074088A00BB
:1020240073088400720E8300FE0E7E0E090077088A
:10203400903E84008317000883120313A000200835
:10204400A1000130A0002008F7077708143A031D07
:102054002C282D282F28F7012F28210831280800A3
:10206400A43083120313A0000130A100A201203088
:10207400A3000030A4000A168A11D0200A168A117F
:1020840083120313A2010314A20D00300A168A114D
:10209400FC210A168A11080083120313A600A70163
:1020A400A7016528FF30A5002508A30027080A1208
:1020B4008A11D8270A168A11013083120313A50046
:1020C4002508A707652826082702031C6A286B2809
:1020D40054286C28080083120313A10083160317E5
:1020E4008C13831203132108831203178D008316A4
:1020F40003170C110C147E280C18812882287E28C2
:102104008328831203170C0883120313A0002008EA
:10211400A20022088D28080083120313A101603055
:102124002102031C962897289928A928A928210860
:10213400103E8400831780010130A0002008A1070D
:1021440060302102031CA728A8289928A928003058
:10215400F900A0002008F8000800FF34FF34FF3421
:10216400FF340034023400340034003400340034CA
:1021740000340134FF34FF34FF34FF3402340034BC
:1021840000340134EF34FF340234FF340534FF34B7
:10219400FF340134FF34FF34FF34FF34EA280130C4
:1021A40083120313A3020030031CA403A402220815
:1021B400A50023082007A60021080318013EA70054
:1021C400260884008317271C831325088000EA2827
:1021D4008312031324082304031DF128F228D128B1
:1021E400F328080083120313A3002308A20076082F
:1021F400903E84002208831780000130A200220848
:10220400F6077608143A031D082909290A29F60154
:1022140086162030A0000330A1000A168A15D6279E
:102224000A168A11831203138612080083120313F9
:10223400A600A3010314A30D26080A128A11D827A5
:102244000A168A11831203132608031D2A293D291D
:102254001E300A168A116D200A168A11013E831255
:102264000313A5002508A3001E300A128A11D827DB
:102274000A168A113D29080083120313A600FF30B1
:10228400A5002508A30026080A128A11D8270A16D1
:102294008A11831203132608031D512964291E3051
:1022A4000A168A116D200A168A11FF3E831203133F
:1022B400A5002508A3001E300A128A11D8270A1681
:1022C4008A11642908008316031388018601831286
:1022D400031308138801E830A0000330A1000A1694
:1022E4008A15D6270A168A11383083120313A800D8
:1022F4002808A20000300A168A11FC210A168A1145
:102304000C3083120313A8002808A20000300A1618
:102314008A11FC210A168A110A168A1132200A1619
:102324008A11080083120313B301BC290030A300EF
:102334000030A2000030A1000A30A0003108A7003C
:102344003008A6002F08A5002E08A4000A168A113A
:1023540090270A168A11831203132308B100220856
:10236400B0002108AF002008AE000130B2003208EE
:10237400B307BC29310830042F042E04031DC329DC
:10238400C4299829C5293308C72908007B08831262
:102394000313D9005908DC00FF30D9005908DD00C7
:1023A4000A168A118E200A168A1107308312031323
:1023B400D9005908AB001330DA005A08AC00D33006
:1023C400DB005B08AD0001300A128A15B4230A163B
:1023D4008A115D3083120313D9005908B7005C30A9
:1023E4000A128A112F220A168A11FB29FB29FB29BA
:1023F400FB29080083120313A4002408013A031DD7
:10240400042A052A0E2AA208031D092A0A2A0E2ACA
:102414002030A3002308A200220888002418132ACD
:10242400172A8312031386151A2A8312031386119B
:102434000611FA30A0000030A1000A168A15D6272A
:102444000A168A11831203130615FA30A00000300D
:10245400A1000A168A15D6270A168A1108001E300A
:102464000A168A116D200A168A11183A031D3B2A8E
:102474003C2A3F2AFF30672A672A83120313A501E7
:102484000314A50D5E2A25080A168A116D200A1662
:102494008A1183120313A3002308A4002408FF3A1B
:1024A400031D552A562A592A2508672A672A013006
:1024B400A3002308A5075E2A18302502031C632AFB
:1024C400642A452A652AFF30672A08008316031305
:1024D400500883120313D9005908DC00FF30D900D7
:1024E4005908DE00831603133B0883120313D90033
:1024F4005908DD000A168A118E200A168A11033043
:1025040083120313D9005908AB000D30DA005A08BE
:10251400AC005C30DB005B08AD0001300A128A15A8
:10252400B4230A168A115E3083120313D9005908A2
:10253400B7005D300A128A112F220A168A11A52AC1
:10254400A52AA52AA52A0800831603133608831290
:102554000313D9005908DC00FF30D9005908DE0004
:1025640083160313370883120313D9005908DD00B7
:102574000A168A118E200A168A1104308312031354
:10258400D9005908AB000230DA005A08AC005D30BB
:10259400DB005B08AD0001300A128A15B4230A1669
:1025A4008A115E3083120313D9005908B7005C30D6
:1025B4000A128A112F220A168A11E32AE32AE32A2D
:1025C400E32A080083160313380883120313D9007F
:1025D4005908DC00FF30D9005908DE0083160313C4
:1025E400390883120313D9005908DD000A168A1129
:1025F4008E200A168A11033083120313D900590856
:10260400AB000530DA005A08AC005D30DB005B0833
:10261400AD0001300A128A15B4230A168A115E30FD
:1026240083120313D9005908B7005C300A128A11C7
:102634002F220A168A11212B212B212B212B080052
:10264400F601F701F801F9018313C1308400D73092
:102654000A128A11F5240A168A118317903084000D
:10266400C4300A128A11F5240A168A111030840023
:1026740070300A128A11F5240A168A11DD30FD0021
:102684001F30FE009330FF00D83084000A168A15EC
:10269400C7270A168A118313C130FD001030FE00CB
:1026A400AF30FF00A03084000A168A15C7270A1627
:1026B4008A110A128A11FD240A168A11FA000A12D2
:1026C4008A11FE240A168A11FB0083010A128A1158
:1026D400DD2E83160313520883120313D9005908FD
:1026E400DB0083160313400883120313D90059082F
:1026F400DC00FF30D9005908DD000A168A118E204B
:102704000A168A11033083120313D9005908AB0047
:10271400AC010314AC0D5B30DA005A08AD00013093
:102724000A128A15B4230A168A115D308312031320
:10273400D9005908B7005C300A128A112F220A16F0
:102744008A11003A0319A72BA82BB32B8312031366
:10275400DD08031DAE2BAF2BB32B0130B52BB52BEE
:10276400B32B0030B52B0800003083120313AC00E8
:102774000030AB000030AA000030A900C12B201C9F
:10278400C42BC52BDD2B2408A90725080311031826
:10279400013E0319CE2BAA07260803110318013E94
:1027A4000319D52BAB07270803110318013E03199E
:1027B400DC2BAC07DD2B0130A8000310A40DA50D04
:1027C400A60DA70DA80BDF2B01300310A30CA20C40
:1027D400A10CA00CFF3E031DE72B230822042104B7
:1027E4002004031DF62BF72BC12BF82B2C08A30078
:1027F4002B08A2002A08A1002908A000012C080027
:10280400831603133C0883120313D9005908DC0010
:10281400831603133D0883120313D9005908DD00FE
:10282400FF30D9005908DE000A168A118E200A16D4
:102834008A11043083120313D9005908AB00023003
:10284400DA005A08AC005C30DB005B08AD000130F4
:102854000A128A15B4230A168A115E3083120313EE
:10286400D9005908B7005D300A128A112F220A16BE
:102874008A11003A03193F2C402C4B2C831203136A
:10288400DE08031D462C472C4B2C01304D2C4D2CBF
:102894004B2C00304D2C080083120313A508031D94
:1028A400542C552C572C9B2C9B2C2508013A03198E
:1028B4005C2C5D2C812C2108A6002208A70023088B
:1028C400A8002408A9002508AA0002300310AA0DB4
:1028D400FF3E031D682C03102A0DF83E013E772CA1
:1028E4000310A90CA80CA70CA60CFF3E031D722C08
:1028F40026080A168A15A6270A168A11912C83120D
:1029040003132508013A031D882C892C912C2108D6
:102914000A168A15A6270A168A11912C912C0130C1
:1029240083120313A502A508031D992C9A2C572C76
:102934009B2C0800FF3083120313B5003508B60042
:102944000A168A1132200A168A11831203133408D4
:10295400AC01AC073308AB01AB07AD01AE010A16FD
:102964008A1123270A168A11B72C0A128A151021F4
:102974000A168A110A168A1598270A168A11003A25
:102984000319C52CC62CB72C0A168A1119200A164D
:102994008A1183120313B5003508B6003608313A9C
:1029A4000319D52CD62CE32C3608323A0319DB2C28
:1029B400DC2CE32C3608333A031DE12CE22CB72C33
:1029C400E32C3608EB2CEB2CB72CB72CB72C0030AF
:1029D400EB2C0800FF3083120313EB006B08EC00B0
:1029E400F32C0A128A1510210A168A110A168A155E
:1029F40098270A168A11003A0319012D022D102D69
:102A04000A168A1119200A168A11333A031D0B2D4E
:102A14000C2D102DFF303E2D3E2D102D0A168A113F
:102A24006B230A168A1183120313EB006B08EC0064
:102A34006C08013A031D1F2D202DF32C0A168A1150
:102A440002240A168A11003A0319292D2A2DF32C7F
:102A5400831203136A08DA01DA076908D901D9076E
:102A64000A128A151B200A168A113E2D3E2DF32CBC
:102A7400F32CF32C00303E2D080000308312031396
:102A8400B6000130B5008630B4009F30B3002D0885
:102A9400A0002E08A100A201A3013608A700350852
:102AA400A6003408A5003308A4000A168A11B62328
:102AB4000A168A11831203132308B6002208B500EC
:102AC4002108B4002008B300682D682D0130AF0040
:102AD4000030B0000030B1000030B2002F08B30263
:102AE4003008031C300F772D782DB4023108031CF5
:102AF400310F7D2D7E2DB5023208031C320F832D3C
:102B0400842DB602FF303606031D922DFF303506A4
:102B1400031D922DFF303406031D922DFF30330622
:102B2400031D952D962D682D972D080083120313F0
:102B340023082204210420040319A12DA22DEC2D25
:102B4400A9010314A90DB42D0130A8000310A00D90
:102B5400A10DA20DA30DA80BA82D0130A8002808D3
:102B6400A907B42DA31FB72DB82DA62DBA2DBA2DA4
:102B740023082702031DC82D22082602031DC82D81
:102B840021082502031DC82D20082402031CCB2D77
:102B9400CC2DDB2D2008A4022108031C210FA50243
:102BA4002208031C220FA6022308031C230FA702DA
:102BB400DB2D01300310A30CA20CA10CA00CFF3ED2
:102BC400031DDC2D0130A902031DE92DEA2DBA2DC8
:102BD400EC2DEC2D2708A3002608A2002508A1004F
:102BE4002408A000F52D080083120313E0008316C7
:102BF40003132C0883120313DF00831603132B081B
:102C040083120313DE00831603132A0883120313AB
:102C1400DD0083160313290883120313DC00FF303D
:102C2400D9005908E2007A08D9005908E10060087F
:102C3400D9005908DD000A168A118E200A168A1155
:102C4400073083120313D9005908AB000C30DA00A3
:102C54005A08AC005C30DB005B08AD0001300A129E
:102C64008A15B4230A168A11623083120313D90019
:102C74005908B70061300A128A112F220A168A11E4
:102C8400003A0319462E472E522E83120313E208EC
:102C9400031D4D2E4E2E522E0130542E542E522EE4
:102CA4000030542E080083120313E000831603132C
:102CB4003A0883120313D9005908E100FF30D90000
:102CC4005908E20083160313280883120313DF0054
:102CD40083160313270883120313DE0083160313DA
:102CE400260883120313DD008316031325088312B9
:102CF4000313DC006008D9005908DE000A168A11A3
:102D04008E200A168A11063083120313D90059083B
:102D1400AB000630DA005A08AC005C30DB005B081C
:102D2400AD0001300A128A15B4230A168A116230E2
:102D340083120313D9005908B70061300A128A11AB
:102D44002F220A168A11003A0319A92EAA2EB52E8B
:102D540083120313E208031DB02EB12EB52E0130E9
:102D6400B72EB72EB52E0030B72E080083120313EA
:102D7400A2010314A20D00300A168A11FC210A16BE
:102D84008A11803083120313A5002508A2000030A5
:102D94000A168A11FC210A168A1183120313A90147
:102DA40002302902031CD72ED82EDA2E222F222FEE
:102DB400AA0110302A02031CE02EE12EE32E0B2F71
:102DC4000B2F2908A50004300310A50DFF3E031D99
:102DD400E62EA4302507A6002A082607A700270800
:102DE400840083170008A8002808A20001300A16EE
:102DF4008A11FC210A168A11013083120313A500DB
:102E04002508AA0710302A02031C092F0A2FE32ED3
:102E14000B2FC030A5002508A20000300A168A1125
:102E2400FC210A168A11013083120313A500250818
:102E3400A90702302902031C202F212FDA2E222F6A
:102E44000800792F831203132C08FF002B08840039
:102E54000A168A1500200A168A110A3A031D332F0E
:102E6400342F442F0130AF002F08AD0711302D024D
:102E7400031C3D2F3E2F412F8A2F8A2F732FAE0123
:102E8400732F732F10302D020318492F4A2F732FDD
:102E940010302E0203184F2F502F732F2C08FF00D1
:102EA4002B0884000A168A1500200A168A11AF001E
:102EB4002D08B00004300310B00DFF3E031D5D2F3C
:102EC400A4303007B1002E083107B2003208840064
:102ED4002F08831780000130AF002F08AE07732F2F
:102EE400732F0130AB070318AC0A0030AC07831210
:102EF40003132C08FF002B0884000A168A150020EF
:102F04000A168A110038031D882F892F242F8A2F2F
:102F14000A168A11B8260A168A110800003083128C
:102F24000313AD000030AC000030AB000030AA0049
:102F340023082204210420040319A12FA22FF62F11
:102F4400A9010314A90DB42F0130A8000310A00D8A
:102F5400A10DA20DA30DA80BA82F0130A8002808CD
:102F6400A907B42FA31FB72FB82FA62FBA2FBA2F94
:102F74000130A8000310AA0DAB0DAC0DAD0DA80BCC
:102F8400BC2F23082702031DD12F22082602031D6C
:102F9400D12F21082502031DD12F20082402031C50
:102FA400D42FD52FE52F2008A4022108031C210FBC
:102FB400A5022208031C220FA6022308031C230FC8
:102FC400A7022A14E52F01300310A30CA20CA10CB4
:102FD400A00CFF3E031DE62F0130A902031DF32FB1
:102FE400F42FBA2FF62FF62F2D08A3002C08A200D9
:102FF4002B08A1002A08A000FF2F0800FF1B0A28A5
:1030040083137F1883170008840A0319FF0A080032
:103014007F087F398A000408840A0319FF0A8200A2
:103F26000134003400340334E9347608770600306F
:103F3600031D01309E2F0800780879060030031D06
:103F46000130A52F080083120313A0000C122008CD
:103F56009900AD2F0C1EB02FB12FAD2FB22F080038
:103F66008B170B17831603138C162430980090308A
:103F76008312031398001430831603139900080064
:103F86007E088A007F0882000A168A15C3270A1649
:103F96008A158000840A04087D0603190034FF0A86
:103FA6000319FE0AC72FE02F013083120313A00264
:103FB6000030031CA103A102E02F83120313210882
:103FC6002004031DE72FE82FD72FE92F0800F10063
:103FD6007108F0007808103E84007008831780008E
:103FE6000130F0007008F8077808603A031DFC2FCE
:0A3FF600FD2FFF2FF801FF2F080038
:02400E003A3F37
:00000001FF
