:1000000000000A128A111228FE00030EF3000408F1
:10001000F4000A08F500831203137F08F6000A169D
:0A0020008A15A22C0A168A11B128D5
:10002C0064008001840A04060319003404061728AE
:10003C0083160313A701A501A0010314A00D8312BD
:10004C00031386120A168A1507250A128A11BF3065
:10005C0083120313AB008830AC00AD01AE010A165D
:10006C008A11AE240A128A11A13083120313A00044
:10007C000030A100FF30EB006B08A2000430A3009D
:10008C000030A4000A168A15A0250A128A114E28DF
:10009C00A7300A168A112B220A128A118312031313
:1000AC00EB006B0883160313A5002508FF3A031D0C
:1000BC006028612864284F294F294E282508013AC9
:1000CC00031D69286A2834290E30270203186F286B
:1000DC0070284E2802302702031C75287628112917
:1000EC000E30270203187B287C281129A60127082B
:1000FC00FE3E83120313EB006B0883160313A70059
:10010C00033083120313A0000030A10083160313E5
:10011C00270883120313EB00EC016B08A2006C0898
:10012C00A3000A168A1173260A128A11831203136A
:10013C002008ED006D0883160313A600A001270804
:10014C0083120313EB00831603132608A13E8400CD
:10015C00831203136B088313800083160313260882
:10016C00A13E84000008FF3A0319BD28BE28F228DE
:10017C00033083120313EB006B08A00083160313E8
:10018C002608A13E840000080A168A15ED240A12DE
:10019C008A11123E83120313AB0088300318013E00
:1001AC00AC00AD010314AD0D0330EC006C08A000E5
:1001BC008316031326080A168A15ED240A128A11CF
:1001CC00033E83120313ED006D08AE000A168A116C
:1001DC00AE240A128A11F228831603132108FF3A5F
:1001EC000319F928FA2811292208FF3A0319FF28C4
:1001FC00002911292308FF3A031905290629112979
:10020C002408FF3A03190B290C291129A001031406
:10021C00A00D112911292008013A031D16291729AF
:10022C0028298312031386140330AD000030AE006E
:10023C000A168A11CA220A128A1183120313861013
:10024C004F294F2903308312AD000030AE000A163F
:10025C008A11CA220A128A114E284E2883160313B9
:10026C00A508031D3A293B294E2883120313861631
:10027C000130AD000030AE000A168A11CA220A12F3
:10028C008A118312031386124E284E284E284E28AC
:10029C004E28080083120313C0000030C4000F3036
:1002AC00C300FF30C200FF30C100CB01CC01C8013C
:1002BC00C501CA014D30B8003808C900C601C701D4
:1002CC004908A0000030A100A2010C30A3000030AE
:1002DC00A4000A168A15A0250A128A11EC2A0A16FD
:1002EC008A1537240A128A11003A03197E297F29AC
:1002FC00EC2A0A168A15D4240A128A1183120313C3
:10030C00B8003808CC000030C4000F30C300FF30F8
:10031C00C200FF30C100CA08031D95299629A529E2
:10032C004C08B8004B084907B90039088400380854
:10033C00831380000130B8003808CB07F4294A0831
:10034C00013A031DAA29AB29D8295408FD3EB8004F
:10035C0055080318013EFF3EB9004808BA00BB011E
:10036C0039083B02031DBC2938083A020318BF297F
:10037C00C029D8294C08B80048084007B9003908EA
:10038C0084003808831380000130B8003808C8078F
:10039C004C08B800B9013808C6070318C70A390851
:1003AC00C707F4294C08B8004B084907B9003908AD
:1003BC0084003808831380000130B8003808CB075C
:1003CC000130B8003808C5074508023A031DEF296B
:1003DC00F029F4291D2B1D2BF429F429CA08031D1F
:1003EC00F829F929EC2A4B080A3A031DFE29FF29A2
:1003FC00EC2A4D08A0004E08A100A201A301023076
:10040C00B8003808A4000A128A1560220A128A1150
:10041C00831203132108CE01CE072008CD01CD078E
:10042C0002304D3E840083130008A000840A0008AB
:10043C00A100840A0008A200840A0008A30004306A
:10044C00B8003808A4000A128A1560220A128A1110
:10045C00831203132308D2002208D1002108D000F4
:10046C002008CF005308B800B901BA01BB013B0802
:10047C00A3003A08A2003908A1003808A000A40182
:10048C000314A40D0A128A1560220A128A1183120F
:10049C0003132008BC003C08D3005408A0005508E6
:1004AC00A100A201A3010230B8003808A4000A126E
:1004BC008A1560220A128A11831203132108D501AE
:1004CC00D5072008D401D4075608B800B901BA01E1
:1004DC00BB013B08A3003A08A2003908A100380868
:1004EC00A000A4010314A40D0A128A1560220A129A
:1004FC008A11831203132008BC003C08D600CA01E1
:10050C000314CA0DEF304E06031D8E2A01304D0622
:10051C00031D912A922ABB2A8316031348088312BF
:10052C0003135206031DB02A8316031347088312C4
:10053C0003135106031DB02A8316031346088312B6
:10054C0003135006031DB02A8316031345088312A8
:10055C0003134F06031DB32AB42ABB2A5308073AC8
:10056C000319B92ABA2ABE2ABB2A00304A2B4A2BB5
:10057C0007304D3E840083130008B800840A00083D
:10058C00B90008300310B90CB80CFF3E031DC82A83
:10059C0053083807BA00BB01BB0D54083A07BC001E
:1005AC000030031801303B07BD0056083C07BE0065
:1005BC000030031801303D07BF003E08C607031882
:1005CC00C70A3F08C707EC2AEC2AEC2A0130831231
:1005DC000313B8000030B9000030BA000030BB0083
:1005EC003808C1023908031C390FFD2AFE2AC20241
:1005FC003A08031C3A0F032B042BC3023B08031CC1
:10060C003B0F092B0A2BC402FF304406031D182B89
:10061C00FF304306031D182BFF304206031D182B19
:10062C00FF304106031D1B2B1C2B75291D2B570856
:10063C00A0005808A100A201A3010230B80038089C
:10064C00A4000A128A1560220A128A11831203135B
:10065C002108D801D8072008D701D7074708580622
:10066C00031D3A2B46085706031D3D2B3E2B482BEA
:10067C005608B8003708840038088313800001300E
:10068C004A2B4A2B00304A2B080083160313AA016D
:10069C000314AA0D00300A168A155E250A128A1157
:1006AC00013A031D5A2B5B2B8B2D0A168A15072535
:1006BC000A128A11B03083120313AB008830AC00DD
:1006CC00AD01AE010A168A11AE240A128A118316E4
:1006DC000313AA01AC300A168A112B220A128A11B2
:1006EC0083120313EB006B0883160313AB002B0868
:1006FC00FF3A031D822B832B862B8B2D8B2D8B2D61
:10070C002B08013A031D8B2B8C2B6A2D2C08031DF7
:10071C00902B972B2C08013A031D952B962B6A2DA9
:10072C00972B0A168A1507250A128A110030831294
:10073C000313AB008A30AC00AD01AE010A168A116E
:10074C00AE240A128A11023083120313AD0000305A
:10075C00AE000A168A11CA220A128A1183160313D2
:10076C00AE01AE030A168A1507250A128A110C303F
:10077C0083120313AB008A30AC00AD01AE010A1634
:10078C008A11AE240A128A1131300A168A15C42530
:10079C000A128A11D12B0A168A11E9260A128A1119
:1007AC000A168A1530240A128A11003A0319DF2B13
:1007BC00E02BD12B0A168A15BB240A128A1183123C
:1007CC000313EB006B0883160313AD002D08313AAD
:1007DC00031DF12BF22B032C2E08803A753E0318C7
:1007EC00F82BF92B2E2C013083120313EB006B0822
:1007FC0083160313AE072E2C2E2C2D08323A031D14
:10080C00082C092C1A2C2E08803A7F3E031C0F2C26
:10081C00102C2E2CFF3083120313EB006B08831665
:10082C000313AE072E2C2E2C2D08333A031D1F2C30
:10083C00202C232C8B2D8B2D2E2C2D08343A031D84
:10084C00282C292C2E2C852C852C2E2C2E2C2E2C29
:10085C00033083120313EB006B08A0008316031301
:10086C002E080A168A15ED240A128A11123E8400EB
:10087C0088300318013E83120313FF000A128A15F5
:10088C0000200A128A11EC006C0883160313A000D6
:10089C00033083120313EB006B08A00083160313C1
:1008AC002E080A168A15ED240A128A11013E123EF0
:1008BC00840088300318013E83120313FF000A12D0
:1008CC008A1500200A128A11EC006C088316031397
:1008DC00A100A201A03083120313AB000030AC00C6
:1008EC00AD010314AD0D0530EB006B08AE000A161C
:1008FC008A11AE240A128A11D12BD12BD12B83163B
:10090C0003132E08FF3A031D8C2C8D2CAB2C0A16CE
:10091C008A1507250A128A11BF3083120313AB0004
:10092C008930AC00AD01AE010A168A11AE240A1250
:10093C008A11023083120313AD000030AE000A1688
:10094C008A11CA220A128A118B2DAE1BAE2CAF2C27
:10095C004A2D2E08803A743E0318B52CB62C4A2D1D
:10096C002E08023E83120313EB006B08831603134D
:10097C00AE002E080A168A1181230A128A11013A36
:10098C00031DC92CCA2C2B2DA03083120313A000DD
:10099C000030A100A2010A30A3000030A4000A1606
:1009AC008A15A0250A128A110A168A1507250A1219
:1009BC008A112F3083120313AB008930AC00AD01C8
:1009CC00AE010A168A11AE240A128A118316031379
:1009DC002E0883120313B4008039031DFF30B500B9
:1009EC00B600B700A030EB006B08B8000230EC008A
:1009FC006C08B9000A168A11FE250A128A11A03059
:100A0C0083120313AB000030AC00AD010314AD0D29
:100A1C000930EB006B08AE000A168A11AE240A12DC
:100A2C008A11831603132E080A168A153C260A12FD
:100A3C008A11023083120313AD000030AE000A1687
:100A4C008A11CA220A128A118B2D0A168A150725B9
:100A5C000A128A11F23083120313AB008930AC00F6
:100A6C00AD01AE010A168A11AE240A128A110230A7
:100A7C0083120313AD000030AE000A168A11CA228D
:100A8C000A128A118B2D8B2D0A168A1507250A122C
:100A9C008A11843083120313AB008930AC00AD0192
:100AAC00AE010A168A11AE240A128A110230831280
:100ABC000313AD000030AE000A168A11CA220A12C6
:100ACC008A118B2D8B2D8B2D0A168A1507250A1250
:100ADC008A11D23083120313AB008930AC00AD0104
:100AEC00AE010A168A11AE240A128A110230831240
:100AFC000313AD000030AE000A168A11CA220A1286
:100B0C008A118B2D8B2D8B2D8B2D080083160313A7
:100B1C00B5010314B50DBB01BB0300300A168A15D1
:100B2C005E250A128A11013A031D9D2D9E2D1C2E45
:100B3C000A168A1507250A128A11B030831203137C
:100B4C00AB008830AC00AD01AE010A168A11AE24A0
:100B5C000A128A1183160313B501B9300A168A11C9
:100B6C002B220A128A1183160313A0002008B60048
:100B7C003608FF3A031DC32DC42DC72DFF2FFF2FA1
:100B8C001C2E3608013A031DCC2DCD2DFB2D39081A
:100B9C00031DD12DD82D3908013A031DD62DD72D83
:100BAC00FB2DD82D0A168A1507250A128A1100303A
:100BBC0083120313AB008A30AC00AD01AE010A16F0
:100BCC008A11AE240A128A11023083120313AD006B
:100BDC000030AE000A168A11CA220A128A11831634
:100BEC000313B5010314B50D1C2E0A168A1507251F
:100BFC000A128A11D23083120313AB008930AC0075
:100C0C00AD01AE010A168A11AE240A128A11023005
:100C1C0083120313AD000030AE000A168A11CA22EB
:100C2C000A128A11FF2FFF2F1C2E1C2E8316031362
:100C3C003508013A031D232E242EFF2F0A168A1580
:100C4C0007250A128A1183160313BB01BB030C3050
:100C5C0083120313AB008A30AC00AD01AE010A164F
:100C6C008A11AE240A128A1131300A168A15C4254B
:100C7C000A128A11412E0A168A11E9260A128A11C1
:100C8C000A168A1530240A128A11003A03194F2EBB
:100C9C00502E412E0A168A15BB240A128A1183166D
:100CAC000313A0002008BA003A08313A031D5F2E46
:100CBC00602E6D2E3B08803A753E0318662E672E0B
:100CCC00942E0130A0002008BB07942E942E3A08D5
:100CDC00323A031D722E732E802E3B08803A7F3ED3
:100CEC00031C792E7A2E942EFF30A0002008BB070F
:100CFC00942E942E3A08333A031D852E862E892E77
:100D0C00FF2FFF2F942E3A08343A031D8E2E8F2E70
:100D1C00942EEF2EEF2E942E942E942E0330A000B2
:100D2C00200883120313A000831603133B080A1632
:100D3C008A15ED240A128A11123E84008830031899
:100D4C00013E83120313FF000A128A1500200A12B7
:100D5C008A1183160313A1002108B0000330A000F0
:100D6C00200883120313A000831603133B080A16F2
:100D7C008A15ED240A128A11013E123E8400883035
:100D8C000318013E83120313FF000A128A15002078
:100D9C000A128A1183160313A1002108B100B201B3
:100DAC00B03083120313AB000030AC00AD01031460
:100DBC00AD0D023083160313A00020088312031319
:100DCC00AE000A168A11AE240A128A11412E412E47
:100DDC00412E831603133B08FF3A031DF62EF72E04
:100DEC00152F0A168A1507250A128A11BF3083128D
:100DFC000313AB008930AC00AD01AE010A168A11A9
:100E0C00AE240A128A11023083120313AD00003093
:100E1C00AE000A168A11CA220A128A11FF2FBB1BB6
:100E2C00182F192FDE2F3B08803A743E03181F2F02
:100E3C00202FDE2F0230A0002008BB070A168A15CF
:100E4C0007250A128A11453083120313AB0089302F
:100E5C00AC00AD01AE010A168A11AE240A128A1139
:100E6C00831603133B08A0002008B70037080A16A6
:100E7C008A116A270A128A1183160313A00020080C
:100E8C00B8003808013A031D4C2F4D2FB32F0A160A
:100E9C008A1507250A128A115B3083120313AB00E3
:100EAC008930AC00AD01AE010A168A11AE240A12CB
:100EBC008A11831603133708A000A101A201A30114
:100ECC00230883120313B70083160313220883121B
:100EDC000313B60083160313210883120313B50002
:100EEC0083160313200883120313B400A630831651
:100EFC000313A400240883120313B80002308316D2
:100F0C000313A500250883120313B9000A168A11CE
:100F1C00FE250A128A11A63083120313AB0000308F
:100F2C00AC00AD010314AD0D0C3083160313A000FF
:100F3C00200883120313AE000A168A11AE240A127B
:100F4C008A11023083120313AD000030AE000A1672
:100F5C008A11CA220A128A11FF2F8316031338082A
:100F6C00FF3A031DBA2FBB2FBE2FFF2FFF2FFF2FD2
:100F7C000A168A1507250A128A11173083120313D1
:100F8C00AB008930AC00AD01AE010A168A11AE245B
:100F9C000A128A11023083120313AD000030AE0026
:100FAC000A168A11CA220A128A11FF2FFF2FFF2F4D
:100FBC000A168A1507250A128A1184308312031324
:100FCC00AB008930AC00AD01AE010A168A11AE241B
:100FDC000A128A11023083120313AD000030AE00E6
:100FEC000A168A11CA220A128A11FF2FFF2FFF2F0D
:100FFC00FF2F0800FF1B0A2883137F188317000894
:10100C00840A0319FF0A08007F087F398A00040844
:10101C00840A0319FF0A820041342034003442341C
:10102C00203400344334203400344434203400342D
:10103C0045342034003446342034003447342034D2
:10104C0000344834203400344934203400344A34D9
:10105C00203400344B34203400344C3420340034ED
:10106C003134203441346434643420344E346534A7
:10107C007734203455347334653472340A34323452
:10108C002034443465346C34653474346534203421
:10109C004F346C34643420345534733465347234C6
:1010AC000034313420344334683461346E34673462
:1010BC0065342034413464346D3469346E340A340C
:1010CC00323420344134643464342F344434653441
:1010DC006C34203455347334653472340034313408
:1010EC00203446346F3472342034413463346334E6
:1010FC006534733473340A343234203446346F34E8
:10110C007234203441346C34743465347234203489
:10111C0055347334653472340034313420344434EF
:10112C0065346C34653474346534203441346C3437
:10113C006C340A3432342034443465346C346534C1
:10114C00743465342034533469346E3467346C34FD
:10115C0065340034413464346D3469346E34203475
:10116C005234653471347534693472346534643492
:10117C000A3450346C34613463346534203446346E
:10118C0069346E346734653472340034313420344D
:10119C00413464346D3469346E3420342D3420344D
:1011AC00303430340A3432342034413464346D34C5
:1011BC0069346E3420342D342034303431340034DE
:1011CC004534723472346F347234203449346E3492
:1011DC000A3420342034523465346734693473341F
:1011EC007434653472346134743469346F346E34ED
:1011FC00003450346C347A342034523465346734CF
:10120C00693473347434653472340A3420346E3473
:10121C00653477342034413464346D3469346E343D
:10122C0000344534723472346F347234203449349F
:10123C006E340A34203455347334653472342034AB
:10124C004334723465346134743469346F346E34BD
:10125C00003455347334653472342034443465347A
:10126C006C3465347434653464340A3455347334F2
:10127C006534723420344E346F343A3400344E3486
:10128C0065347734203455347334653472340A340D
:10129C0050346C34613463346534203446346934EE
:1012AC006E3467346534723400344E3465347734BC
:1012BC00203455347334653472340A342034433456
:1012CC00723465346134743465346434203440349D
:1012DC003A340034413464346D3469346E3420341F
:1012EC000A3420342034523465346734693473340E
:1012FC0074346534723465346434003449346E3477
:10130C0064346534783420344F34753474340A348E
:10131C0020346F346634203462346F3475346E3458
:10132C0064340034433461346E34273474342034E0
:10133C00443465346C346534743465340A34203484
:10134C00413464346D3469346E34003441346C345B
:10135C006C342034553473346534723473340A3439
:10136C002034443465346C346534743465346434FA
:10137C00003449346E34763461346C3469346434FA
:10138C000A342034533465346C3465346334743427
:10139C0069346F346E340034413464346D346934E0
:1013AC006E3420344E346F3474340A342034203488
:1013BC0066346F3475346E346434003441346434C0
:1013CC006D3469346E342034443465346C34653493
:1013DC007434653464340034433461346E346E34A4
:1013EC006F3474342034443465346C346534743460
:1013FC0065340034413464346D3469346E342034D3
:10140C0066346F3475346E3464340034533465345C
:10141C006C3465346334743420345534733465342B
:10142C0072340034573465346C3463346F346D3437
:10143C0065340034FF34FF348316031350088312D1
:10144C000313D9005908DC00FF30D9005908DE001D
:10145C0083160313510883120313D9005908DD00B6
:10146C000A168A157F250A128A1503308312031374
:10147C00D9005908AB000530DA005A08AC005D30D1
:10148C00DB005B08AD0001300A128A151E250A121A
:10149C008A155E3083120313D9005908B7005C30EB
:1014AC000A128A1150210A128A155F2A5F2A5F2AB2
:1014BC005F2A0800831203132408013A031D672ACC
:1014CC00682A6A2A0E2B0E2B2408023A031D6F2A57
:1014DC00702A932A2108B601B6072008B501B50772
:1014EC003608A6003508A50008300310A60CA50C7C
:1014FC00FF3E031D7B2A3508A800A70125082704F9
:10150C00B50026082804B6003508A0003608A1004E
:10151C00A201A3010E2B0E2B0E2B2408043A031D43
:10152C00982A992A0E2B2008A5002108A60022082B
:10153C00A7002308A80018300310A80CA70CA60CB1
:10154C00A50CFF3E031DA22A2008A9002108AA0011
:10155C002208AB002308AC0010300310AC0CAB0C11
:10156C00AA0CA90CFF3E031DB32A08300310A90DC9
:10157C00AA0DAB0DAC0DFF3E031DBC2A2008AD001F
:10158C002108AE002208AF002308B0000830031079
:10159C00B00CAF0CAE0CAD0CFF3E031DCD2A1030C1
:1015AC000310AD0DAE0DAF0DB00DFF3E031DD62AD1
:1015BC002008B1002108B2002208B3002308B400AF
:1015CC0018300310B10DB20DB30DB40DFF3E031D59
:1015DC00E72A3108AD043208AE043308AF043408EE
:1015EC00B0042D08A9042E08AA042F08AB04300857
:1015FC00AC0425082904A00026082A04A100270809
:10160C002B04A20028082C04A3000E2B0E2B0E2B4F
:10161C00080083120313EC010314EC0D00300A16BE
:10162C008A155E250A128A15013A031D1E2B1F2BE3
:10163C009D2B0A168A1507250A128A15B0308312BB
:10164C000313AB008830AC00AD01AE010A168A1151
:10165C00AE240A128A1583120313EC016E300A169B
:10166C008A112B220A128A1583120313EB006B08C2
:10167C00ED006D08FF3A031D442B452B482BD82B4E
:10168C00D82B9D2B6D08013A031D4D2B4E2B7C2B1B
:10169C006E08031D522B592B6E08013A031D572B54
:1016AC00582B7C2B592B0A168A1507250A128A15DA
:1016BC00003083120313AB008A30AC00AD01AE01D5
:1016CC000A168A11AE240A128A15023083120313E9
:1016DC00AD000030AE000A168A11CA220A128A1511
:1016EC0083120313EC010314EC0D9D2B0A168A15BF
:1016FC0007250A128A15D23083120313AB008930E6
:10170C00AC00AD01AE010A168A11AE240A128A157C
:10171C00023083120313AD000030AE000A168A119A
:10172C00CA220A128A15D82BD82B9D2B9D2B8312DB
:10173C0003136C08013A031DA42BA52BD82B0A16F6
:10174C008A1135200A128A150C300A168A153F2583
:10175C000A128A1583120313A3011E300A168A1566
:10176C00E8250A128A150A168A1507250A128A15FF
:10177C00AC3083120313AB008930AC00AD01AE0169
:10178C000A168A11AE240A128A1502308312031328
:10179C00AD000030AE000A168A11CA220A128A1550
:1017AC00D82BD82B0800FF3083120313EF006F08DF
:1017BC0083160313BC008F3087000A168A1569261E
:1017CC000A128A1583120313861286100130AD009B
:1017DC000030AE000A168A11CA220A128A15183075
:1017EC0083120313AB008A30AC00AD01AE010A16B4
:1017FC008A11AE240A128A15023083120313AD002B
:10180C000030AE000A168A11CA220A128A150A166C
:10181C008A1555240A128A150A168A15CC260A121C
:10182C008A15182C753083120313B3008830B4005A
:10183C000A168A117A220A128A1583120313EF00F0
:10184C006F0883160313BC003C08313A031D2F2C80
:10185C00302C362C0A128A111E200A128A15182CCA
:10186C00831603133C08323A031D3D2C3E2C182CD6
:10187C003F2C573083120313B3008830B4000A1680
:10188C008A117A220A128A1583120313EF006F0849
:10189C0083160313BC003C08313A031D562C572CFD
:1018AC00952C582CCC3083120313B3008830B40021
:1018BC000A168A117A220A128A1583120313EF0070
:1018CC006F0883160313BC003C08313A031D6F2CC0
:1018DC00702C772C3C080A128A1577260A128A1566
:1018EC00582C831603133C08323A031D7E2C7F2C94
:1018FC00862C3C080A128A1577260A128A15582C4F
:10190C00831603133C08333A031D8D2C8E2C582C54
:10191C003F2C3F2C582C582C582C582C3F2C3C0826
:10192C00323A031D9A2C9B2C0B2D9C2C3630831297
:10193C000313B3008830B4000A168A117A220A12F3
:10194C008A1583120313EF006F0883160313BC0070
:10195C003C08313A031DB32CB42CBA2C0A128A1150
:10196C008C250A128A159C2C831603133C08323AD8
:10197C00031DC12CC22CFE2CC32C933083120313D9
:10198C00B3008830B4000A168A117A220A128A151A
:10199C0083120313EF006F0883160313BC003C087B
:1019AC00313A031DDA2CDB2CE12C0A128A150F2399
:1019BC000A128A15C32C831603133C08323A031DF2
:1019CC00E82CE92CEF2C0A128A114B230A128A15E7
:1019DC00C32C831603133C08333A031DF62CF72C47
:1019EC00C32C9C2C9C2CC32CC32CC32CC32C9C2CE8
:1019FC003C08333A031D032D042D9C2C3F2C3F2C0B
:101A0C009C2C9C2C9C2C9C2C3F2C3C08333A031D6E
:101A1C00102D112D3F2C182C182C3F2C3F2C3F2C0B
:101A2C003F2C182C182C182C182C0A128A1112283E
:101A3C0083120313B600B701B80183160313E40134
:101A4C00E5014D08DA01DA074C08D901D907590824
:101A5C0083120313A100831603135A088312031372
:101A6C00A200A301A4010230AE002E08A5000A16A4
:101A7C008A11DD210A128A15831603134808DE0029
:101A8C004708DD004608DC004508DB000230D93E83
:101A9C0084008313000883120313A100840A000836
:101AAC00A200840A0008A300840A0008A4000430E1
:101ABC00AE002E08A5000A168A11DD210A128A151D
:101ACC00831203133608AE002E0883160313DF00AF
:101ADC005F0883120313AE00AF01B001B1013108EE
:101AEC00A4003008A3002F08A2002E08A100A50115
:101AFC000314A50D0A168A11DD210A128A15831208
:101B0C0003132B08AE00AF012E0883160313E0005D
:101B1C00831203132F0883160313E100600883124A
:101B2C000313A10083160313610883120313A2008D
:101B3C00A301A4010230AE002E08A5000A168A11DA
:101B4C00DD210A128A15831203132C08AE002E080D
:101B5C0083160313E200620883120313AE00AF0175
:101B6C00B001B1013108A4003008A3002F08A20075
:101B7C002E08A100A5010314A50D0A168A11DD215A
:101B8C000A128A15831203132D08AE002E08831631
:101B9C000313E30083120313B701B801092E3708AE
:101BAC0083160313630783120313AE002E088400FD
:101BBC00831300080A168A1548240A128A15831200
:101BCC000313370883160313630783120313AE0042
:101BDC002E08840083130008AF00B0012F08831671
:101BEC000313E4070318E50A831203133008831662
:101BFC000313E507013083120313B7070318B80A60
:101C0C000030B807092E831603136008FD3E8312BB
:101C1C000313AE008316031361080318013EFF3E45
:101C2C0083120313AF002F083802031D1F2E2E083A
:101C3C003702031C222E232ED52D242E0730D93EFD
:101C4C00840083130008AE00840A0008AF0008303B
:101C5C000310AF0CAE0CFF3E031D2E2E8316031388
:101C6C005F08831203132E07B000B101B10D831668
:101C7C0003136008831203133007B20000300318FB
:101C8C0001303107B3008316031362088312031368
:101C9C003207B4000030031801303307B5003408A4
:101CAC0083160313E4070318E50A8312031335089C
:101CBC0083160313E507640883120313A10083162C
:101CCC000313650883120313A200A301A4010230BD
:101CDC00AE002E08A5000A168A11DD210A128A15FB
:101CEC00080083160313A400A0010314A00D2408FC
:101CFC00CF3E0A168A155E250A128A15013A031D73
:101D0C00882E892E5D2F0A168A1507250A128A1528
:101D1C00B03083120313AB008830AC00AD01AE01C0
:101D2C000A168A11AE240A128A1583160313A0010F
:101D3C00A3300A168A112B220A128A158312031356
:101D4C00EB006B0883160313A1002108FF3A031D57
:101D5C00B02EB12EB42EFF2FFF2F5D2F2108013A8C
:101D6C00031DB92EBA2E3C2F2408CF3E8312031329
:101D7C00EB00FF3003180030EC008316031323082C
:101D8C00831203136B066C04031DCD2ECE2E3C2F39
:101D9C000A168A1507250A128A15003083120313B6
:101DAC00AB008A30AC00AD01AE010A168A11AE242C
:101DBC000A128A15023083120313AD000030AE00F4
:101DCC000A168A11CA220A128A15831603132408CA
:101DDC00CF3E0A168A1181230A128A15013A031D75
:101DEC00F82EF92E1C2F0A168A1507250A128A15A9
:101DFC00E43083120313AB008930AC00AD01AE01AB
:101E0C000A168A11AE240A128A15013083120313A2
:101E1C00AD000030AE000A168A11CA220A128A15C9
:101E2C0083160313A0010314A00D5D2F0A168A1547
:101E3C0007250A128A15983083120313AB008930D8
:101E4C00AC00AD01AE010A168A11AE240A128A1535
:101E5C00023083120313AD000030AE000A168A1153
:101E6C00CA220A128A15FF2FFF2F5D2F0A168A1518
:101E7C0007250A128A15D23083120313AB0089305E
:101E8C00AC00AD01AE010A168A11AE240A128A15F5
:101E9C00023083120313AD000030AE000A168A1113
:101EAC00CA220A128A15FF2FFF2F5D2F5D2F831672
:101EBC0003132008013A031D642F652FFF2F0A1608
:101ECC008A1507250A128A15FF3083120313AB00FB
:101EDC008830AC00AD01AE010A168A11AE240A128C
:101EEC008A15023083120313AD000030AE000A16BF
:101EFC008A11CA220A128A150A168A1507250A128D
:101F0C008A15BF3083120313AB008830AC00AD01CF
:101F1C00AE010A168A11AE240A128A1502308312F7
:101F2C000313AD000030AE000A168A11CA220A1241
:101F3C008A15831603132408CF3E0A168A116A27C2
:101F4C000A128A1583120313EB006B088316031312
:101F5C00A2002208013A031DB42FB52FD32F0A1665
:101F6C008A1507250A128A15703083120313AB00E9
:101F7C008930AC00AD01AE010A168A11AE240A12EA
:101F8C008A15023083120313AD000030AE000A161E
:101F9C008A11CA220A128A15FF2F831603132208EC
:101FAC00FF3A031DDA2FDB2FDE2FFF2FFF2FFF2F22
:101FBC000A168A1507250A128A15E63083120313AE
:101FCC00AB008830AC00AD01AE010A168A11AE240C
:101FDC000A128A15023083120313AD000030AE00D2
:101FEC000A168A11CA220A128A15FF2FFF2FFF2FF9
:101FFC00FF2F080083120313A4002408013A031DC9
:10200C00082809281228A208031D0D280E281228BA
:10201C002030A3002308A2002208880024181728C7
:10202C001B288312031306151E2883120313061193
:10203C008611F430A0000130A1000A168A1578240C
:10204C000A168A11831203138615F430A00001308E
:10205C00A1000A168A1578240A168A11080083161C
:10206C000313680883120313D9005908DC00FF30EE
:10207C00D9005908DE008316031353088312031387
:10208C00D9005908DD000A168A157F250A168A110F
:10209C00033083120313D9005908AB000D30DA005A
:1020AC005A08AC005C30DB005B08AD0001300A1252
:1020BC008A151E250A168A115E3083120313D90065
:1020CC005908B7005D300A128A1150210A168A117C
:1020DC0072287228722872280800831603134E087F
:1020EC0083120313D9005908DC00FF30D9005908BA
:1020FC00DE00831603134F0883120313D90059080B
:10210C00DD000A168A157F250A168A1104308312FF
:10211C000313D9005908AB000230DA005A08AC009E
:10212C005D30DB005B08AD0001300A128A151E25FC
:10213C000A168A115E3083120313D9005908B700AE
:10214C005C300A128A1150210A168A11B028B02864
:10215C00B028B0280800F701F801F901FA0183133F
:10216C00D9308400EF300A128A1116200A168A110F
:10217C00831790308400C4300A128A1116200A1674
:10218C008A111030840048300A128A1116200A165F
:10219C008A11CE30FD001C30FE003E30FF00C430F2
:1021AC0084000A168A1569240A168A118313D930F9
:1021BC00FD001D30FE002330FF00BD3084000A16E8
:1021CC008A1569240A168A110A128A1520220A16FF
:1021DC008A11FB000A128A1521220A168A11FC00A8
:1021EC0083010A128A15D92B831603136A088312EA
:1021FC000313D9005908DB00831603135808831204
:10220C000313D9005908DC00FF30D9005908DD0050
:10221C000A168A157F250A168A11033083120313B6
:10222C00D9005908AB00AC010314AC0D5B30DA00DB
:10223C005A08AD0001300A128A151E250A168A1199
:10224C005D3083120313D9005908B7005C300A12B1
:10225C008A1150210A168A11003A03193629372996
:10226C00422983120313DD08031D3D293E2942290F
:10227C000130442944294229003044290800003007
:10228C0083120313AC000030AB000030AA00003006
:10229C00A9005029201C532954296C292408A9076A
:1022AC00250803110318013E03195D29AA07260806
:1022BC0003110318013E03196429AB072708031106
:1022CC000318013E03196B29AC076C290130A800D7
:1022DC000310A40DA50DA60DA70DA80B6E2901309A
:1022EC000310A30CA20CA10CA00CFF3E031D76291D
:1022FC002308220421042004031D85298629502942
:10230C0087292C08A3002B08A2002A08A100290861
:10231C00A00090290800831603135408831203139A
:10232C00D9005908DC0083160313550883120313D4
:10233C00D9005908DD00FF30D9005908DE000A1613
:10234C008A157F250A168A11043083120313D900CB
:10235C005908AB000230DA005A08AC005C30DB00E4
:10236C005B08AD0001300A128A151E250A168A1167
:10237C005E3083120313D9005908B7005D300A127E
:10238C008A1150210A168A11003A0319CE29CF2935
:10239C00DA2983120313DE08031DD529D629DA297D
:1023AC000130DC29DC29DA290030DC290800831211
:1023BC000313A508031DE329E429E6292A2A2A2A5E
:1023CC002508013A0319EB29EC29102A2108A6004B
:1023DC002208A7002308A8002408A9002508AA00A1
:1023EC0002300310AA0DFF3E031DF72903102A0D1E
:1023FC00F83E013E062A0310A90CA80CA70CA60C4B
:10240C00FF3E031D012A26080A168A1548240A16BF
:10241C008A11202A831203132508013A031D172A57
:10242C00182A202A21080A168A1548240A168A1105
:10243C00202A202A013083120313A502A508031DAC
:10244C00282A292AE6292A2A080083120313E900DC
:10245C00FF30E8006808EA00332A0A168A11E926D8
:10246C000A168A110A168A1530240A168A11003A9D
:10247C000319412A422A502A0A168A15BB240A1625
:10248C008A11333A031D4B2A4C2A502AFF30792AE1
:10249C00792A502A0A168A11FA200A168A118312EE
:1024AC000313E8006808EA006A08013A031D5F2A72
:1024BC00602A332A0A168A1191210A168A11003AC7
:1024CC000319692A6A2A332A8312031369080A1624
:1024DC008A118B250A168A11792A792A332A332AEA
:1024EC00332A0030792A0800FF3083120313B50019
:1024FC003508B6000A168A1507250A168A118312A2
:10250C0003133408AC01AC073308AB01AB07AD01C6
:10251C00AE010A168A11AE240A168A11952A0A16D9
:10252C008A11E9260A168A110A168A1530240A1607
:10253C008A11003A0319A32AA42A952A0A168A1585
:10254C00BB240A168A1183120313B5003508B60092
:10255C003608313A0319B32AB42AC12A3608323A5A
:10256C000319B92ABA2AC12A3608333A031DBF2ADD
:10257C00C02A952AC12A3608C92AC92A952A952A19
:10258C00952A0030C92A0800003083120313B600C4
:10259C000130B5008630B4009F30B3002D08A00088
:1025AC002E08A100A201A3013608A7003508A60039
:1025BC003408A5003308A4000A168A1145210A160E
:1025CC008A11831203132308B6002208B5002108D0
:1025DC00B4002008B300F32AF32A0130AF00003016
:1025EC00B0000030B1000030B2002F08B302300848
:1025FC00031C300F022B032BB4023108031C310FC8
:10260C00082B092BB5023208031C320F0E2B0F2B93
:10261C00B602FF303606031D1D2BFF303506031D99
:10262C001D2BFF303406031D1D2BFF303306031DFD
:10263C00202B212BF32A222B0800831203132308AF
:10264C0022042104200403192C2B2D2B772BA901F8
:10265C000314A90D3F2B0130A8000310A00DA10DF0
:10266C00A20DA30DA80B332B0130A8002808A90735
:10267C003F2BA31F422B432B312B452B452B2308E0
:10268C002702031D532B22082602031D532B21085E
:10269C002502031D532B20082402031C562B572BF9
:1026AC00662B2008A4022108031C210FA502220876
:1026BC00031C220FA6022308031C230FA702662B60
:1026CC0001300310A30CA20CA10CA00CFF3E031DA7
:1026DC00672B0130A902031D742B752B452B772B0F
:1026EC00772B2708A3002608A2002508A1002408A0
:1026FC00A000802B080083120313E0008316031341
:10270C00440883120313DF00831603134308831258
:10271C000313DE0083160313420883120313DD0038
:10272C0083160313410883120313DC00FF30D90016
:10273C005908E2007B08D9005908E1006008D9006B
:10274C005908DD000A168A157F250A168A110730EA
:10275C0083120313D9005908AB000C30DA005A0865
:10276C00AC005C30DB005B08AD0001300A128A154E
:10277C001E250A168A11623083120313D9005908D8
:10278C00B70061300A128A1150210A168A11003AD8
:10279C000319D12BD22BDD2B83120313E208031D5B
:1027AC00D82BD92BDD2B0130DF2BDF2BDD2B003091
:1027BC00DF2B080083120313E00083160313520867
:1027CC0083120313D9005908E100FF30D9005908CE
:1027DC00E20083160313400883120313DF008316F1
:1027EC0003133F0883120313DE00831603133E0802
:1027FC0083120313DD00831603133D0883120313A6
:10280C00DC006008D9005908DE000A168A157F25FD
:10281C000A168A11063083120313D9005908AB002B
:10282C000630DA005A08AC005C30DB005B08AD0007
:10283C0001300A128A151E250A168A11623083127B
:10284C000313D9005908B70061300A128A115021BC
:10285C000A168A11003A0319342C352C402C831299
:10286C000313E208031D3B2C3C2C402C0130422C62
:10287C00422C402C0030422C080083120313A2017E
:10288C000314A20D00300A168A1100200A168A11B0
:10289C00803083120313A5002508A20000300A160D
:1028AC008A1100200A168A1183120313A90102301F
:1028BC002902031C622C632C652CAD2CAD2CAA01B7
:1028CC0010302A02031C6B2C6C2C6E2C962C962C24
:1028DC002908A50004300310A50DFF3E031D712C23
:1028EC00A4302507A6002A082607A700270884007D
:1028FC0083170008A8002808A20001300A168A11C4
:10290C0000200A168A11013083120313A500250832
:10291C00AA0710302A02031C942C952C6E2C962C92
:10292C00C030A5002508A20000300A168A1100202C
:10293C000A168A11013083120313A5002508A90772
:10294C0002302902031CAB2CAC2C652CAD2C0800DE
:10295C00042D831203132C08FF002B0884000A1289
:10296C008A1500200A168A110A3A031DBE2CBF2CA8
:10297C00CF2C0130AF002F08AD0711302D02031CF6
:10298C00C82CC92CCC2C152D152DFE2CAE01FE2CD3
:10299C00FE2C10302D020318D42CD52CFE2C10300C
:1029AC002E020318DA2CDB2CFE2C2C08FF002B0833
:1029BC0084000A128A1500200A168A11AF002D080D
:1029CC00B00004300310B00DFF3E031DE82CA43002
:1029DC003007B1002E083107B200320884002F08EE
:1029EC00831780000130AF002F08AE07FE2CFE2CA1
:1029FC000130AB070318AC0A0030AC078312031389
:102A0C002C08FF002B0884000A128A1500200A16D5
:102A1C008A110038031D132D142DAF2C152D0A16F9
:102A2C008A1143240A168A110800003083120313FA
:102A3C00AC000030AB000030AA000030A900230825
:102A4C0022042104200403192C2D2D2D812DAD01E0
:102A5C000314AD0D3F2D0130A8000310A00DA10DE6
:102A6C00A20DA30DA80B332D0130A8002808AD072B
:102A7C003F2DA31F422D432D312D452D452D0130CA
:102A8C00A8000310A90DAA0DAB0DAC0DA80B472D7A
:102A9C0023082702031D5C2D22082602031D5C2D32
:102AAC0021082502031D5C2D20082402031C5F2D28
:102ABC00602D702D2008A4022108031C210FA502F3
:102ACC002208031C220FA6022308031C230FA702B3
:102ADC002914702D01300310A30CA20CA10CA00C16
:102AEC00FF3E031D712D0130AD02031D7E2D7F2D88
:102AFC00452D812D812D2C08A3002B08A2002A081E
:102B0C00A1002908A0008A2D080083120313E600F7
:102B1C006130840083160317440883138000840AF1
:102B2C0045088000840A46088000840A4708800013
:102B3C00840A48088000FF3083120313D900590817
:102B4C00E7005C3084008316031749088000840A70
:102B5C004A088000840A4B088000840A4C088000D4
:102B6C00840A4D0880000A168A157F250A168A11D8
:102B7C00083083120313D9005908AB001B30DA005C
:102B8C005A08AC005C30DB005B08AD0001300A1267
:102B9C008A151E250A168A11673083120313D90071
:102BAC005908B70061300A128A1150210A168A118D
:102BBC00003A0319E22DE32DF52D83120313E708D8
:102BCC00031DE92DEA2DF52D6208D9006608840055
:102BDC005908831380000130FD2DFD2DF52D831236
:102BEC00031366088400831380010030FD2D080058
:102BFC00831203133708B1003608B0003508AF0054
:102C0C003408AE000A168A1598260A168A11831201
:102C1C000313BA003A08BC0039083C020318172EFB
:102C2C00182E1D2E3908BA003A08BC001D2E3C087F
:102C3C003807BA003A088400831380010130BC02C3
:102C4C006B2E0030A3000030A2000030A1000A302F
:102C5C00A0003708A7003608A6003508A5003408E0
:102C6C00A4000A168A1123230A168A11831203134D
:102C7C002008303EBA003C083807BB003B088400F3
:102C8C003A08831380000130BC020030A3000030EE
:102C9C00A2000030A1000A30A0003708A7003608B7
:102CAC00A6003508A5003408A4000A168A111B25B5
:102CBC000A168A11831203132308B7002208B600E0
:102CCC002108B5002008B4006B2E3C08FF3A031D08
:102CDC00702E712E272E722E080083120313A6015C
:102CEC00A11F792E7A2E832EA009A109A00A0319FF
:102CFC00A10AA6010314A60D832EA31F862E872ED0
:102D0C00912EA209A309A20A0319A30A0130A40057
:102D1C002408A606912EA701A80121082004031956
:102D2C00982E992ED72EA5010314A50DA92E01308E
:102D3C000310A00DA10DFF3E031D9E2E0130A4001B
:102D4C002408A507A92EA11FAC2EAD2E9D2EAF2EAB
:102D5C00AF2E01300310A70DA80DFF3E031DB02EA2
:102D6C0021082302031DBC2E20082202031CBF2EA7
:102D7C00C02EC82E2008A2022108031CA303A30204
:102D8C002714C82E01300310A10CA00CFF3E031D0C
:102D9C00C92E0130A502031DD42ED52EAF2ED72E51
:102DAC00D72E2608031DDB2EE12EA709A809A70A9A
:102DBC000319A80AE12E2808A101A1072708A001E0
:102DCC00A007E82E080083120313A501071CEF2EA1
:102DDC00F02E082F8718F32EF42E082F0719F72E34
:102DEC00F82E082F8719FB2EFC2E082FFE2EFE2EF8
:102DFC000718012F022FFE2E032F3330A4002408B6
:102E0C00A5005E2F07180B2F0C2F242F871C0F2FBC
:102E1C00102F242F0719132F142F242F8719172F36
:102E2C00182F242F1A2F1A2F87181D2F1E2F1A2FE9
:102E3C001F2F3430A4002408A5005E2F0718272F5D
:102E4C00282F402F87182B2F2C2F402F071D2F2F6B
:102E5C00302F402F8719332F342F402F362F362FFA
:102E6C000719392F3A2F362F3B2F3230A400240864
:102E7C00A5005E2F0718432F442F5E2F8718472F6E
:102E8C00482F5E2F07194B2F4C2F5E2F871D4F2F6E
:102E9C00502F5E2F522F522F8719552F562F522FEE
:102EAC00572F3130A4002408A5005E2F5E2F5E2F13
:102EBC002508031D622F692F25080A168A15C425BB
:102ECC000A168A11692F080083120313E400FF30DD
:102EDC00E3006308E500722F0A168A11E9260A1628
:102EEC008A110A168A1530240A168A11003A031917
:102EFC00802F812F8F2F0A168A15BB240A168A1150
:102F0C00333A031D8A2F8B2F8F2FFF30FF2FFF2F6C
:102F1C008F2F0A168A11FA200A168A1183120313AC
:102F2C00E3006308E5006508013A031D9E2F9F2FFF
:102F3C00722F0A168A1191210A168A110A168A1101
:102F4C00E9260A168A110A168A1530240A168A11DD
:102F5C00003A0319B22FB32FC12F0A168A15BB24BE
:102F6C000A168A11333A031DBC2FBD2FC12FFF3017
:102F7C00FF2FFF2FC12F0A168A11FA200A168A1169
:102F8C0083120313E3006308E5006508013A031D8F
:102F9C00D02FD12FA42F0A168A1173200A168A114A
:102FAC000A128A1522220A168A1183120313640844
:102FBC000A168A11E0230A168A11013A031DE72F1B
:102FCC00E82FF42F8312031364080A168A151026AF
:102FDC000A168A110130FF2FFF2FA42F0030FF2F6C
:102FEC00FF2FA42FA42FA42F722F722F722F00301B
:042FFC00FF2F08009B
:10386000770878060030031D0130362C08007908EF
:103870007A060030031D01303D2C0800FF34FF3470
:10388000FF34FF3400340134003400340334E934AD
:1038900083120313A0000C12200899004F2C0C1E59
:1038A000522C532C4F2C542C08008B170B178316BB
:1038B00003138C1624309800903083120313980061
:1038C000143083160313990008007E088A007F08CD
:1038D00082000A168A1565240A168A158000840A51
:1038E00004087D0603190034FF0A0319FE0A692C37
:1038F000822C013083120313A0020030031CA103A9
:10390000A102822C8312031321082004031D892C99
:103910008A2C792C8B2C0800F2007208F1007908AF
:10392000103E84007108831780000130F100710897
:10393000F9077908383A031D9E2C9F2CA12CF90118
:10394000A12C08008C1EA52CA62CB02C1A080A1637
:103950008A158C240A168A15831203138C12B02C34
:103960007608FF0075088A0074088400730E8300CF
:10397000FE0E7E0E09007808903E84008317000832
:1039800083120313A0002008A1000130A00020082A
:10399000F8077808143A031DCE2CCF2CD12CF8014F
:1039A000D12C2108D32C08007A08103E84008317FC
:1039B000000883120313A0002008A1000130A0001A
:1039C0002008FA077A08383A031DE72CE82CEA2C7D
:1039D000FA01EA2C2108EC2C080083120313A3003F
:1039E000A201231CF42CF52CFA2C2008A10021089C
:1039F000A207FA2C0310A00D0310A30CA308031DAB
:103A0000022D032DF12C042D2208062D0800A430D0
:103A100083120313A0000130A100A2012030A300F3
:103A20000030A4000A168A15A0250A168A158312EA
:103A30000313A2010314A20D00300A168A110020FC
:103A40000A168A15080002340034003400340034A9
:103A5000003400340134FF34FF34FF34FF340234C7
:103A6000003400340134EF34FF340234FF340534C1
:103A7000FF34FF340134FF34FF34FF34FF3483124A
:103A80000313A600A701A701562DFF30A5002508A6
:103A9000A30027080A168A15E8250A168A15013098
:103AA00083120313A5002508A707562D2608270211
:103AB000031C5B2D5C2D452D5D2D08008312031327
:103AC000A100831603178C1383120313210883129A
:103AD00003178D00831603170C110C146F2D0C188F
:103AE000722D732D6F2D742D831203170C08831202
:103AF0000313A0002008A20022087E2D08008312D4
:103B00000313A10138302102031C872D882D8A2D33
:103B10009A2D9A2D2108103E8400831780010130D0
:103B2000A0002008A10738302102031C982D992DF0
:103B30008A2D9A2D0030FA00A0002008F900080014
:103B4000BA2D013083120313A3020030031CA40317
:103B5000A4022208A50023082007A60021080318B4
:103B6000013EA700260884008317271C831325081D
:103B70008000BA2D8312031324082304031DC12DD2
:103B8000C22DA12DC32D080083120313A300230807
:103B9000A2007708903E840022088317800001303D
:103BA000A2002208F7077708143A031DD82DD92D53
:103BB000DA2DF70186162030A0000330A1000A1686
:103BC0008A1578240A168A158312031386120800B0
:103BD00083120313A400831603178C138312031399
:103BE0002408831203178D00831203132308831202
:103BF00003178C00831603178C110C1555308D009C
:103C0000AA308D008C14052E0C118C18082E092E4C
:103C1000042E8C1D0C2E0D2E0F2EEB2DEB2D0800DF
:103C200083120313A600A3010314A30D26080A168A
:103C30008A15E8250A168A15831203132608031D20
:103C4000222E3B2E2608013A0319272E282E3B2E22
:103C50001E300A168A155E250A168A15013E831241
:103C60000313A5002508A3001E300A168A15E825AF
:103C70000A168A153B2E080083120313A600FF3094
:103C8000A5002508A30026080A168A15E8250A16A5
:103C90008A15831203132608031D4F2E682E26084B
:103CA000013A0319542E552E682E1E300A168A1515
:103CB0005E250A168A15FF3E83120313A500250808
:103CC000A3001E300A168A15E8250A168A15682EE2
:103CD0000800831603138801860183120313081357
:103CE0008801E830A0000330A1000A168A15782464
:103CF0000A168A15383083120313A8002808A20078
:103D000000300A168A1100200A168A150C30831218
:103D10000313A8002808A20000300A168A11002008
:103D20000A168A150A168A1507250A168A15080022
:103D300083120313B301C02E0030A3000030A20091
:103D40000030A1000A30A0003108A7003008A6000A
:103D50002F08A5002E08A4000A168A111B250A1692
:103D60008A15831203132308B1002208B00021082A
:103D7000AF002008AE000130B2003208B307C02EF9
:103D8000310830042F042E04031DC72EC82E9C2E8C
:103D9000C92E3308CB2E08007C0883120313D900E8
:103DA0005908DC00FF30D9005908DD000A168A15D1
:103DB0007F250A168A15073083120313D900590884
:103DC000AB001330DA005A08AC00EB30DB005B08C4
:103DD000AD0001300A128A151E250A168A155D30BB
:103DE00083120313D9005908B7005C300A128A11F4
:103DF00050210A168A15FF2EFF2EFF2EFF2E0800D7
:02400E003A3F37
:00000001FF
